{
  "contractName": "Bank",
  "abi": [
    {
      "constant": true,
      "inputs": [
        {
          "internalType": "address",
          "name": "",
          "type": "address"
        }
      ],
      "name": "balances",
      "outputs": [
        {
          "internalType": "uint256",
          "name": "",
          "type": "uint256"
        }
      ],
      "payable": false,
      "stateMutability": "view",
      "type": "function"
    },
    {
      "constant": false,
      "inputs": [],
      "name": "stockMoney",
      "outputs": [],
      "payable": true,
      "stateMutability": "payable",
      "type": "function"
    },
    {
      "constant": false,
      "inputs": [
        {
          "internalType": "uint256",
          "name": "amount",
          "type": "uint256"
        }
      ],
      "name": "withdrawMoney",
      "outputs": [],
      "payable": true,
      "stateMutability": "payable",
      "type": "function"
    },
    {
      "constant": true,
      "inputs": [],
      "name": "getBalance",
      "outputs": [
        {
          "internalType": "uint256",
          "name": "",
          "type": "uint256"
        }
      ],
      "payable": false,
      "stateMutability": "view",
      "type": "function"
    }
  ],
  "bytecode": "0x608060405234801561001057600080fd5b50610337806100206000396000f3fe60806040526004361061003f5760003560e01c806312065fe01461004457806327e235e31461006f57806354876921146100d4578063cca920fc14610102575b600080fd5b34801561005057600080fd5b5061005961010c565b6040518082815260200191505060405180910390f35b34801561007b57600080fd5b506100be6004803603602081101561009257600080fd5b81019080803573ffffffffffffffffffffffffffffffffffffffff169060200190929190505050610152565b6040518082815260200191505060405180910390f35b610100600480360360208110156100ea57600080fd5b810190808035906020019092919050505061016a565b005b61010a6102b4565b005b60008060003373ffffffffffffffffffffffffffffffffffffffff1673ffffffffffffffffffffffffffffffffffffffff16815260200190815260200160002054905090565b60006020528060005260406000206000915090505481565b6000803373ffffffffffffffffffffffffffffffffffffffff1673ffffffffffffffffffffffffffffffffffffffff1681526020019081526020016000205481111561021e576040517f08c379a000000000000000000000000000000000000000000000000000000000815260040180806020018281038252601b8152602001807f4e4f5420454e4f554748204d4f4e455920494e2053544f434b2021000000000081525060200191505060405180910390fd5b806000803373ffffffffffffffffffffffffffffffffffffffff1673ffffffffffffffffffffffffffffffffffffffff168152602001908152602001600020600082825403925050819055503373ffffffffffffffffffffffffffffffffffffffff166108fc829081150290604051600060405180830381858888f193505050501580156102b0573d6000803e3d6000fd5b5050565b346000803373ffffffffffffffffffffffffffffffffffffffff1673ffffffffffffffffffffffffffffffffffffffff1681526020019081526020016000206000828254019250508190555056fea265627a7a723158209f73a57ca60eb0388990511d46445aff004b3b8ffa2df63457352562f5b8df0464736f6c63430005100032",
  "source": "pragma solidity >=0.4.22 <0.8.0;\n\ncontract Bank {\n\n    mapping(address=> uint)public balances;\n\n    //  FUNCTIONS\n    function stockMoney() public payable{\n        balances[msg.sender] += msg.value;\n    }\n    \n    function withdrawMoney(uint amount) public payable{\n        require(amount <= balances[msg.sender], \"NOT ENOUGH MONEY IN STOCK !\");\n        balances[msg.sender] -= amount;\n        msg.sender.transfer(amount);\n    }\n    \n    \n    function getBalance() public view returns (uint) {\n        return balances[msg.sender];\n    }\n\n}\n\ncontract ERC20  {\n\n    mapping (address => uint256) private _balances;\n\n    uint256 private _totalSupply;\n\n    string private _name;\n    string private _symbol;\n    uint8 private _decimals;\n\n    constructor () public {\n        _name = 'SerinkanToken';\n        _symbol = 'srk';\n        _decimals = 18;\n    }\n\n    function name() public view returns (string memory) {\n        return _name;\n    }\n\n    function symbol() public view returns (string memory) {\n        return _symbol;\n    }\n\n    function decimals() public view returns (uint8) {\n        return _decimals;\n    }\n\n    function totalSupply() public view returns (uint256) {\n        return _totalSupply;\n    }\n   \n    function balanceOf() public view returns (uint256) {\n        return _balances[msg.sender];\n    }\n\n    function transfer(address _to, uint256 amount) public {\n        require(msg.sender != address(0), \"ERC20: transfer from the zero address\");\n        require(_to != address(0), \"ERC20: transfer to the zero address\");\n        require(amount <= _balances[msg.sender], \"ERC20: cannot send token that you don't have\");\n        \n        _balances[msg.sender] = _balances[msg.sender] - amount;\n        _balances[_to] = _balances[_to] + amount;\n    }\n\n    \n    function buyToken() public  payable {\n        msg.sender.transfer(msg.value);\n        uint amount = msg.value * 4;\n        _balances[msg.sender] = _balances[msg.sender] + amount;\n    }\n    \n    function sellToken(uint256 amount) public payable {\n        _balances[msg.sender] = _balances[msg.sender] - amount;\n        uint value = amount / 5;\n        msg.sender.transfer(value);\n\n    }\n\n\n}",
  "sourcePath": "/home/osboxes/Bureau/ExamETH/contracts/Bank.sol",
  "compiler": {
    "name": "solc",
    "version": "0.5.16+commit.9c3226ce.Emscripten.clang"
  },
  "schemaVersion": "3.3.2",
  "updatedAt": "2021-01-22T11:13:24.734Z",
  "networkType": "ethereum",
  "devdoc": {
    "methods": {}
  },
  "userdoc": {
    "methods": {}
  }
}