{
  "contractName": "ERC20",
  "abi": [
    {
      "inputs": [],
      "payable": false,
      "stateMutability": "nonpayable",
      "type": "constructor"
    },
    {
      "constant": true,
      "inputs": [],
      "name": "name",
      "outputs": [
        {
          "internalType": "string",
          "name": "",
          "type": "string"
        }
      ],
      "payable": false,
      "stateMutability": "view",
      "type": "function"
    },
    {
      "constant": true,
      "inputs": [],
      "name": "symbol",
      "outputs": [
        {
          "internalType": "string",
          "name": "",
          "type": "string"
        }
      ],
      "payable": false,
      "stateMutability": "view",
      "type": "function"
    },
    {
      "constant": true,
      "inputs": [],
      "name": "decimals",
      "outputs": [
        {
          "internalType": "uint8",
          "name": "",
          "type": "uint8"
        }
      ],
      "payable": false,
      "stateMutability": "view",
      "type": "function"
    },
    {
      "constant": true,
      "inputs": [],
      "name": "totalSupply",
      "outputs": [
        {
          "internalType": "uint256",
          "name": "",
          "type": "uint256"
        }
      ],
      "payable": false,
      "stateMutability": "view",
      "type": "function"
    },
    {
      "constant": true,
      "inputs": [],
      "name": "balanceOf",
      "outputs": [
        {
          "internalType": "uint256",
          "name": "",
          "type": "uint256"
        }
      ],
      "payable": false,
      "stateMutability": "view",
      "type": "function"
    },
    {
      "constant": false,
      "inputs": [
        {
          "internalType": "address",
          "name": "_to",
          "type": "address"
        },
        {
          "internalType": "uint256",
          "name": "amount",
          "type": "uint256"
        }
      ],
      "name": "transfer",
      "outputs": [],
      "payable": false,
      "stateMutability": "nonpayable",
      "type": "function"
    },
    {
      "constant": false,
      "inputs": [],
      "name": "buyToken",
      "outputs": [],
      "payable": true,
      "stateMutability": "payable",
      "type": "function"
    },
    {
      "constant": false,
      "inputs": [
        {
          "internalType": "uint256",
          "name": "amount",
          "type": "uint256"
        }
      ],
      "name": "sellToken",
      "outputs": [],
      "payable": true,
      "stateMutability": "payable",
      "type": "function"
    }
  ],
  "bytecode": "0x608060405234801561001057600080fd5b506040518060400160405280600d81526020017f536572696e6b616e546f6b656e000000000000000000000000000000000000008152506002908051906020019061005c9291906100ca565b506040518060400160405280600381526020017f73726b0000000000000000000000000000000000000000000000000000000000815250600390805190602001906100a89291906100ca565b506012600460006101000a81548160ff021916908360ff16021790555061016f565b828054600181600116156101000203166002900490600052602060002090601f016020900481019282601f1061010b57805160ff1916838001178555610139565b82800160010185558215610139579182015b8281111561013857825182559160200191906001019061011d565b5b509050610146919061014a565b5090565b61016c91905b80821115610168576000816000905550600101610150565b5090565b90565b61096d8061017e6000396000f3fe60806040526004361061007b5760003560e01c8063722713f71161004e578063722713f71461019a57806395d89b41146101c5578063a482171914610255578063a9059cbb1461025f5761007b565b806306fdde031461008057806318160ddd146101105780632397e4d71461013b578063313ce56714610169575b600080fd5b34801561008c57600080fd5b506100956102ba565b6040518080602001828103825283818151815260200191508051906020019080838360005b838110156100d55780820151818401526020810190506100ba565b50505050905090810190601f1680156101025780820380516001836020036101000a031916815260200191505b509250505060405180910390f35b34801561011c57600080fd5b5061012561035c565b6040518082815260200191505060405180910390f35b6101676004803603602081101561015157600080fd5b8101908080359060200190929190505050610366565b005b34801561017557600080fd5b5061017e610443565b604051808260ff1660ff16815260200191505060405180910390f35b3480156101a657600080fd5b506101af61045a565b6040518082815260200191505060405180910390f35b3480156101d157600080fd5b506101da6104a0565b6040518080602001828103825283818151815260200191508051906020019080838360005b8381101561021a5780820151818401526020810190506101ff565b50505050905090810190601f1680156102475780820380516001836020036101000a031916815260200191505b509250505060405180910390f35b61025d610542565b005b34801561026b57600080fd5b506102b86004803603604081101561028257600080fd5b81019080803573ffffffffffffffffffffffffffffffffffffffff16906020019092919080359060200190929190505050610617565b005b606060028054600181600116156101000203166002900480601f0160208091040260200160405190810160405280929190818152602001828054600181600116156101000203166002900480156103525780601f1061032757610100808354040283529160200191610352565b820191906000526020600020905b81548152906001019060200180831161033557829003601f168201915b5050505050905090565b6000600154905090565b806000803373ffffffffffffffffffffffffffffffffffffffff1673ffffffffffffffffffffffffffffffffffffffff16815260200190815260200160002054036000803373ffffffffffffffffffffffffffffffffffffffff1673ffffffffffffffffffffffffffffffffffffffff168152602001908152602001600020819055506000600582816103f557fe5b0490503373ffffffffffffffffffffffffffffffffffffffff166108fc829081150290604051600060405180830381858888f1935050505015801561043e573d6000803e3d6000fd5b505050565b6000600460009054906101000a900460ff16905090565b60008060003373ffffffffffffffffffffffffffffffffffffffff1673ffffffffffffffffffffffffffffffffffffffff16815260200190815260200160002054905090565b606060038054600181600116156101000203166002900480601f0160208091040260200160405190810160405280929190818152602001828054600181600116156101000203166002900480156105385780601f1061050d57610100808354040283529160200191610538565b820191906000526020600020905b81548152906001019060200180831161051b57829003601f168201915b5050505050905090565b3373ffffffffffffffffffffffffffffffffffffffff166108fc349081150290604051600060405180830381858888f19350505050158015610588573d6000803e3d6000fd5b506000600434029050806000803373ffffffffffffffffffffffffffffffffffffffff1673ffffffffffffffffffffffffffffffffffffffff16815260200190815260200160002054016000803373ffffffffffffffffffffffffffffffffffffffff1673ffffffffffffffffffffffffffffffffffffffff1681526020019081526020016000208190555050565b600073ffffffffffffffffffffffffffffffffffffffff163373ffffffffffffffffffffffffffffffffffffffff16141561069d576040517f08c379a00000000000000000000000000000000000000000000000000000000081526004018080602001828103825260258152602001806109146025913960400191505060405180910390fd5b600073ffffffffffffffffffffffffffffffffffffffff168273ffffffffffffffffffffffffffffffffffffffff161415610723576040517f08c379a00000000000000000000000000000000000000000000000000000000081526004018080602001828103825260238152602001806108c56023913960400191505060405180910390fd5b6000803373ffffffffffffffffffffffffffffffffffffffff1673ffffffffffffffffffffffffffffffffffffffff168152602001908152602001600020548111156107ba576040517f08c379a000000000000000000000000000000000000000000000000000000000815260040180806020018281038252602c8152602001806108e8602c913960400191505060405180910390fd5b806000803373ffffffffffffffffffffffffffffffffffffffff1673ffffffffffffffffffffffffffffffffffffffff16815260200190815260200160002054036000803373ffffffffffffffffffffffffffffffffffffffff1673ffffffffffffffffffffffffffffffffffffffff16815260200190815260200160002081905550806000808473ffffffffffffffffffffffffffffffffffffffff1673ffffffffffffffffffffffffffffffffffffffff16815260200190815260200160002054016000808473ffffffffffffffffffffffffffffffffffffffff1673ffffffffffffffffffffffffffffffffffffffff16815260200190815260200160002081905550505056fe45524332303a207472616e7366657220746f20746865207a65726f206164647265737345524332303a2063616e6e6f742073656e6420746f6b656e207468617420796f7520646f6e2774206861766545524332303a207472616e736665722066726f6d20746865207a65726f2061646472657373a265627a7a72315820b950ddbd6ff7a427a63b089ef1ddf0826ce5c0826d9114d9fcf8013f530b1ac364736f6c63430005100032",
  "source": "pragma solidity >=0.4.22 <0.8.0;\n\ncontract Bank {\n\n    mapping(address=> uint)public balances;\n\n    //  FUNCTIONS\n    function stockMoney() public payable{\n        balances[msg.sender] += msg.value;\n    }\n    \n    function withdrawMoney(uint amount) public payable{\n        require(amount <= balances[msg.sender], \"NOT ENOUGH MONEY IN STOCK !\");\n        balances[msg.sender] -= amount;\n        msg.sender.transfer(amount);\n    }\n    \n    \n    function getBalance() public view returns (uint) {\n        return balances[msg.sender];\n    }\n\n}\n\ncontract ERC20  {\n\n    mapping (address => uint256) private _balances;\n\n    uint256 private _totalSupply;\n\n    string private _name;\n    string private _symbol;\n    uint8 private _decimals;\n\n    constructor () public {\n        _name = 'SerinkanToken';\n        _symbol = 'srk';\n        _decimals = 18;\n    }\n\n    function name() public view returns (string memory) {\n        return _name;\n    }\n\n    function symbol() public view returns (string memory) {\n        return _symbol;\n    }\n\n    function decimals() public view returns (uint8) {\n        return _decimals;\n    }\n\n    function totalSupply() public view returns (uint256) {\n        return _totalSupply;\n    }\n   \n    function balanceOf() public view returns (uint256) {\n        return _balances[msg.sender];\n    }\n\n    function transfer(address _to, uint256 amount) public {\n        require(msg.sender != address(0), \"ERC20: transfer from the zero address\");\n        require(_to != address(0), \"ERC20: transfer to the zero address\");\n        require(amount <= _balances[msg.sender], \"ERC20: cannot send token that you don't have\");\n        \n        _balances[msg.sender] = _balances[msg.sender] - amount;\n        _balances[_to] = _balances[_to] + amount;\n    }\n\n    \n    function buyToken() public  payable {\n        msg.sender.transfer(msg.value);\n        uint amount = msg.value * 4;\n        _balances[msg.sender] = _balances[msg.sender] + amount;\n    }\n    \n    function sellToken(uint256 amount) public payable {\n        _balances[msg.sender] = _balances[msg.sender] - amount;\n        uint value = amount / 5;\n        msg.sender.transfer(value);\n\n    }\n\n\n}",
  "sourcePath": "/home/osboxes/Bureau/ExamETH/contracts/Bank.sol",
  "compiler": {
    "name": "solc",
    "version": "0.5.16+commit.9c3226ce.Emscripten.clang"
  },
  "schemaVersion": "3.3.2",
  "updatedAt": "2021-01-22T11:13:24.746Z",
  "networkType": "ethereum",
  "devdoc": {
    "methods": {}
  },
  "userdoc": {
    "methods": {}
  }
}